:03000000020158A2
:0C015800787FE4F6D8FD75810902019F54
:03021700010900DA
:1002060075A0A0E4F58075A0807580FF12000380BC
:01021600FBEC
:0401E4007F0A7E0010
:1001E800D3EF9400EE940040147D2A7C03ED1D703B
:0D01F800011CED4C70F7EF1F70E61E80E358
:0102050022D6
:1000030075B07FC2C285B00853080FE508640F605E
:10001300451201E485B00853080FE508640F603604
:1000230085B008E5082489601C24FC601324FE6065
:100033000A1470141509850980800D7580FF8008E6
:100043007580AA8003758055E508640F600885B044
:100053000853080F80F275B0DFC2C485B008530897
:100063000FE508640F60451201E485B00853080FDB
:10007300E508640F603685B008E5082429601C2470
:10008300FC601324FE600A1470141509850980802E
:100093000D7580FF80087580AA8003758055E5087B
:1000A300640F600885B00853080F80F275B0EF85C0
:1000B300B00853080FE508640F60451201E485B0EA
:1000C3000853080FE508640F603685B008E5082477
:1000D30019601C24FC601324FE600A1470141509B3
:1000E300850980800D7580FF80087580AA8003755F
:1000F3008055E508640F600885B00853080F80F247
:1001030075B0BF85B00853080FE508640F6045124A
:1001130001E485B00853080FE508640F603685B025
:1001230008E5082449601C24FC601324FE600A14BB
:1001330070141509850980800D7580FF800875800E
:10014300AA8003758055E508640F600885B00853DD
:05015300080F80F222FC
:10016400020206E493A3F8E493A34003F68001F2A9
:1001740008DFF48029E493A3F85407240CC8C3339C
:10018400C4540F4420C8834004F456800146F6DF6B
:10019400E4800B0102040810204080900217E47EE2
:1001A400019360BCA3FF543F30E509541FFEE49360
:1001B400A360010ECF54C025E060A840B8E493A327
:1001C400FAE493A3F8E493A3C8C582C8CAC583CA52
:1001D400F0A3C8C582C8CAC583CADFE9DEE780BE0A
:01021A0000E3
:00000001FF
